:02000000FE2BD5
:100776001F308316850086018312FC2B3F30D42B55
:100786000630D42B5B30D42B4F30D42B6630D42B91
:100796006D30D42B7D30D42B0730D42B7F30D42B27
:1007A6006F30860005080319C12B0508013A0319A5
:1007B600C32B0508023A0319C52B0508033A03198A
:1007C600C72B0508043A0319C92B0508053A03196E
:1007D600CB2B0508063A0319CD2B0508073A031952
:1007E600CF2B0508083A0319D12B0508093A031936
:0A07F600D32B8601D52B8301BB2B0A
:00000001FF
