:02000000FE2BD5
:1006D60083128F008E010F1C742B0C088D000D08E1
:1006E6008E0703108C0D03108F0C8F08031D6E2BC5
:1006F6000E08080083128E0090010C0803199D2B2A
:100706008F018F0A8C1B8E2B03108C0D01308D00F0
:100716000D088F07852B0310900D0C080E02031C85
:10072600982B0C088E02101403108C0C01308F02CB
:10073600031D8E2B1008080083168501FF308600E6
:100746008312850106081839910011089300ED2BD4
:100756000730060591000608920005300310920C3A
:10076600FF3E031DB12B12080739D92B060891004D
:1007760005300310910CFF3E031DBC2B11080739F1
:10078600920012088C00060807396B23EB2B073002
:10079600060591000608920005300310920CFF3EF4
:1007A600031DD02B12080739FF3A013E1107EC2B27
:1007B6000608910005300310910CFF3E031DDE2B49
:1007C60011080739920012088C00060807397D23A4
:1007D6008312850093080319AB2B1308103A0319EB
:1007E600B92B1308083A0319CA2B1308183A031928
:0A07F600DB2BFF30EC2B83019F2B5F
:00000001FF
